{
  "_format": "hh-sol-artifact-1",
  "contractName": "Counter",
  "sourceName": "contracts/index.sol",
  "abi": [
    {
      "anonymous": false,
      "inputs": [
        {
          "indexed": false,
          "internalType": "uint256",
          "name": "counter",
          "type": "uint256"
        }
      ],
      "name": "CounterInc",
      "type": "event"
    },
    {
      "inputs": [],
      "name": "count",
      "outputs": [],
      "stateMutability": "nonpayable",
      "type": "function"
    },
    {
      "inputs": [],
      "name": "getCounter",
      "outputs": [
        {
          "internalType": "uint32",
          "name": "",
          "type": "uint32"
        }
      ],
      "stateMutability": "view",
      "type": "function"
    }
  ],
  "bytecode": "0x608060405234801561001057600080fd5b50610409806100206000396000f3fe608060405234801561001057600080fd5b50600436106100365760003560e01c806306661abd1461003b5780638ada066e14610045575b600080fd5b610043610063565b005b61004d610141565b60405161005a91906102d0565b60405180910390f35b60008081819054906101000a900463ffffffff168092919061008490610366565b91906101000a81548163ffffffff021916908363ffffffff160217905550506100f86040518060400160405280600e81526020017f436f756e746572206973206e6f7700000000000000000000000000000000000081525060008054906101000a900463ffffffff1663ffffffff1661015a565b7feec7b728df2430a6685bba924a4a787b147d45a2b38034570f9fe9613a91ea4460008054906101000a900463ffffffff1660405161013791906102b5565b60405180910390a1565b60008060009054906101000a900463ffffffff16905090565b6101f28282604051602401610170929190610285565b6040516020818303038152906040527f9710a9d0000000000000000000000000000000000000000000000000000000007bffffffffffffffffffffffffffffffffffffffffffffffffffffffff19166020820180517bffffffffffffffffffffffffffffffffffffffffffffffffffffffff83818316178352505050506101f6565b5050565b60008151905060006a636f6e736f6c652e6c6f679050602083016000808483855afa5050505050565b600061022a826102eb565b61023481856102f6565b9350610244818560208601610333565b61024d816103c2565b840191505092915050565b61026181610307565b82525050565b61027081610321565b82525050565b61027f81610311565b82525050565b6000604082019050818103600083015261029f818561021f565b90506102ae6020830184610258565b9392505050565b60006020820190506102ca6000830184610267565b92915050565b60006020820190506102e56000830184610276565b92915050565b600081519050919050565b600082825260208201905092915050565b6000819050919050565b600063ffffffff82169050919050565b600061032c82610311565b9050919050565b60005b83811015610351578082015181840152602081019050610336565b83811115610360576000848401525b50505050565b600061037182610311565b915063ffffffff82141561038857610387610393565b5b600182019050919050565b7f4e487b7100000000000000000000000000000000000000000000000000000000600052601160045260246000fd5b6000601f19601f830116905091905056fea2646970667358221220ea2d20e8420aa845b569cfd6a7f146d01b5b6afdeda3f216ab6fb4ca657f27c164736f6c63430008000033",
  "linkReferences": {},
  "deployedLinkReferences": {}
}