{
  "_format": "hh-sol-artifact-1",
  "contractName": "Counter",
  "sourceName": "contracts/index.sol",
  "abi": [
    {
      "inputs": [],
      "name": "count",
      "outputs": [],
      "stateMutability": "nonpayable",
      "type": "function"
    },
    {
      "inputs": [],
      "name": "getCounter",
      "outputs": [
        {
          "internalType": "uint32",
          "name": "",
          "type": "uint32"
        }
      ],
      "stateMutability": "view",
      "type": "function"
    }
  ],
  "bytecode": "0x608060405234801561001057600080fd5b50610386806100206000396000f3fe608060405234801561001057600080fd5b50600436106100365760003560e01c806306661abd1461003b5780638ada066e14610045575b600080fd5b610043610063565b005b61004d6100fa565b60405161005a919061025f565b60405180910390f35b60008081819054906101000a900463ffffffff1680929190610084906102e3565b91906101000a81548163ffffffff021916908363ffffffff160217905550506100f86040518060400160405280600e81526020017f436f756e746572206973206e6f7700000000000000000000000000000000000081525060008054906101000a900463ffffffff1663ffffffff16610113565b565b60008060009054906101000a900463ffffffff16905090565b6101ab828260405160240161012992919061022f565b6040516020818303038152906040527f9710a9d0000000000000000000000000000000000000000000000000000000007bffffffffffffffffffffffffffffffffffffffffffffffffffffffff19166020820180517bffffffffffffffffffffffffffffffffffffffffffffffffffffffff83818316178352505050506101af565b5050565b60008151905060006a636f6e736f6c652e6c6f679050602083016000808483855afa5050505050565b60006101e38261027a565b6101ed8185610285565b93506101fd8185602086016102b0565b6102068161033f565b840191505092915050565b61021a81610296565b82525050565b610229816102a0565b82525050565b6000604082019050818103600083015261024981856101d8565b90506102586020830184610211565b9392505050565b60006020820190506102746000830184610220565b92915050565b600081519050919050565b600082825260208201905092915050565b6000819050919050565b600063ffffffff82169050919050565b60005b838110156102ce5780820151818401526020810190506102b3565b838111156102dd576000848401525b50505050565b60006102ee826102a0565b915063ffffffff82141561030557610304610310565b5b600182019050919050565b7f4e487b7100000000000000000000000000000000000000000000000000000000600052601160045260246000fd5b6000601f19601f830116905091905056fea2646970667358221220a38ca8986eb676dbc6a1956190e5f9b82bcae3f649250818951ccd83e57efe9964736f6c63430008000033",
  "linkReferences": {},
  "deployedLinkReferences": {}
}