{
  "_format": "hh-sol-artifact-1",
  "contractName": "TestGas",
  "sourceName": "contracts/testGas.sol",
  "abi": [
    {
      "inputs": [],
      "name": "test1",
      "outputs": [],
      "stateMutability": "nonpayable",
      "type": "function"
    },
    {
      "inputs": [],
      "name": "test2",
      "outputs": [],
      "stateMutability": "nonpayable",
      "type": "function"
    },
    {
      "inputs": [],
      "name": "test3",
      "outputs": [],
      "stateMutability": "nonpayable",
      "type": "function"
    },
    {
      "inputs": [],
      "name": "test4",
      "outputs": [],
      "stateMutability": "nonpayable",
      "type": "function"
    },
    {
      "inputs": [],
      "name": "test5",
      "outputs": [],
      "stateMutability": "nonpayable",
      "type": "function"
    }
  ],
  "bytecode": "0x608060405234801561001057600080fd5b50610267806100206000396000f3fe608060405234801561001057600080fd5b50600436106100575760003560e01c80630a8e8e011461005c5780631ad7be821461006657806366e41cb7146100705780636b59084d1461007a5780638f0d282d14610084575b600080fd5b61006461008e565b005b61006e6100d7565b005b6100786100f7565b005b610082610128565b005b61008c610141565b005b6000808154809291906100a0906101b9565b9190505550600160008154809291906100b8906101b9565b9190505550600260008154809291906100d0906101b9565b9190505550565b6100df610141565b6002546000546100ef9190610159565b600181905550565b600080815480929190610109906101b9565b919050555060016000815480929190610121906101b9565b9190505550565b60008081548092919061013a906101b9565b9190505550565b6001546000546101519190610159565b600281905550565b6000610164826101af565b915061016f836101af565b9250827fffffffffffffffffffffffffffffffffffffffffffffffffffffffffffffffff038211156101a4576101a3610202565b5b828201905092915050565b6000819050919050565b60006101c4826101af565b91507fffffffffffffffffffffffffffffffffffffffffffffffffffffffffffffffff8214156101f7576101f6610202565b5b600182019050919050565b7f4e487b7100000000000000000000000000000000000000000000000000000000600052601160045260246000fdfea264697066735822122074e553dc925b26feec7d285bbfe399ad4028e76efb25768bd9e25982891843ac64736f6c63430008000033",
  "linkReferences": {},
  "deployedLinkReferences": {}
}